:100000000000022091010000BD010000BD010000C0
:10001000BD010000BD010000BD010000BD010000E8
:10002000BD010000BD010000BD010000BD010000D8
:10003000BD010000BC010000BD010000D93100007D
:10004000BD010000BD010000BD010000BD010000B8
:10005000BD010000BD010000BD010000BD010000A8
:10006000BD010000BD010000BD010000BD01000098
:10007000BD010000BD010000BD010000BD01000088
:10008000BD01000029070000BD010000BD01000006
:10009000BD010000BD010000BD010000BD01000068
:1000A000BD010000BD010000BD010000BD01000058
:1000B000BD010000BD010000BD010000BD01000048
:1000C000BD010000BD010000BD010000BD01000038
:1000D000BD010000BD010000BD01000010B5054CD0
:1000E000237833B9044B13B10448AFF300800123E4
:1000F000237010BD8801002000000000EC410000CA
:1001000008B5034B1BB103490348AFF3008008BD9A
:10011000000000008C010020EC410000154B002B7A
:1001200008BF134B9D46A3F5803A00218B460F462E
:100130001348144A121A03F0E1FC0F4B002B00D0B5
:1001400098470E4B002B00D0984700200021040058
:100150000D000D48002802D00C48AFF3008003F0DA
:10016000A9FC2000290003F0A1FB03F08FFC00BFD5
:100170000000080000000220000000000000000055
:100180008801002064020020000000000000000040
:10019000064880470649074A074B9A42BEBF51F8B6
:1001A000040B42F8040BF8E7FFF7B8FF3503000033
:1001B000F84100000000002088010020FEE700BF99
:1001C00080B400AF034BDB6C1B0EDBB21846BD46A0
:1001D00080BC7047B081E00F80B582B000AF00F006
:1001E0001FF87860074B5B6803F00F037A6822FA08
:1001F00003F37B60044A7B6813607B68184608370A
:10020000BD4680BD00800C400800002080B400AFD7
:10021000024B1846BD4680BC704700BF006CDC0234
:1002200080B582B000AF334BDB6A03F47053B3F593
:10023000805F0AD0B3F5005F03D0B3F5006F08D03C
:100240000BE02D4B1B687B6047E04FF400437B6065
:1002500043E02A4B1B687B603FE0264BDB6803F4DE
:10026000E063B3F5007F1BD0B3F5007F05D8002B0A
:1002700024D0B3F5807F16D02BE0B3F5806F09D082
:10028000B3F5A06F03D0B3F5407F06D021E01C4B3F
:100290007B6021E01B4B7B601EE01B4B7B601BE007
:1002A0001A4B7B6018E0FFF78BFF0346122B02D935
:1002B000174B7B6010E0174B7B600DE0FFF780FF72
:1002C0000346122B02D9144B7B6005E0134B7B6075
:1002D00002E000237B6000BF00BF064B1B689B0B46
:1002E00003F0070301337A68B2FBF3F318460837CB
:1002F000BD4680BD00800C400400002000000020AE
:10030000003FAB01406F4001809FD500C0D8A700DF
:1003100040B56400C0CF6A00804F120040420F0019
:1003200080B400AF024B1B681846BD4680BC7047C6
:100330000000002080B400AF034B044A9A6000BF65
:10034000BD4680BC704700BF00ED00E0000000002B
:1003500080B400AF4FF400431846BD4680BC7047E0
:1003600080B400AF4FF47A731846BD4680BC704726
:1003700080B400AF024B1B681846BD4680BC704776
:100380000400002080B483B000AF0346FB7197F9EE
:100390000730002B0BDBFB7903F01F02064997F9AE
:1003A00007305B09012000FA02F241F8232000BF68
:1003B0000C37BD4680BC704700E100E080B500AF5F
:1003C000FFF70AFF00BF80BD80B400AF024B1B6A7D
:1003D0001846BD4680BC704700C0084080B400AFDE
:1003E000024B9B6A1846BD4680BC704700C008405F
:1003F00080B483B000AF7860054A7B6803F00F03D8
:10040000A03352F8233018460C37BD4680BC7047E5
:1004100000C0084080B483B000AF7860034A7B68B6
:10042000536400BF0C37BD4680BC704700C0084015
:1004300080B483B000AF7860054BDA6C04497B6808
:100440001343CB6400BF0C37BD4680BC704700BF70
:1004500000C0084080B483B000AF7860054BDA6C10
:100460007B68DB4303491340CB6400BF0C37BD46B8
:1004700080BC704700C0084080B483B000AF064B1A
:10048000DB6C7B60044B1A6C7B68134018460C379E
:10049000BD4680BC704700BF00C0084080B500AFBB
:1004A000FFF78CFF0521112001F0EEFA032112481D
:1004B00001F0EAFA0121114801F0E6FA01211048A1
:1004C00001F0D0F801210F4801F0CCF801210E48CD
:1004D00001F0C8F801210D4801F0C4F801210C48D1
:1004E00001F0C0F801210B4801F0BCF801210948D6
:1004F00000F086FF00BF80BD02001E000300200048
:100500004081040000D204000092040000A2040014
:10051000D0433E0080062E0080B500AF00210220AF
:1005200001F06EFE002300220821022001F0A0FE4F
:10053000002300220921022001F09AFE002300225C
:100540000A21022001F094FE002300220B21022048
:1005500001F08EFE00BF80BD80B500AF00230022F9
:100560000021094800F0A2FB0023002200210748D7
:1005700000F09CFB0649044800F054FB0449034882
:1005800000F050FB00BF80BD001000400014004090
:10059000803D000080B584B000AF0346FB715B4B2B
:1005A0001B78002B03D00121594802F027FAFB7970
:1005B000002B37D002F0E8FC00BFFFF705FF034631
:1005C00003F01003002BF8D102F0F8FC0421002006
:1005D00002F0C8FA0021002002F05CFB4D4802F056
:1005E00089FB4D4B1B881A463721082002F064FC1A
:1005F000494B5B881A463721092002F05DFC464BC7
:100600009B881A4637210A2002F056FC424BDB88B1
:100610001A4637210B2002F04FFC4FF48030FFF7D1
:1006200019FF1EE002F0B0FC00BFFFF7CDFE03464D
:1006300003F01003002BF8D14FF48030FFF7EAFEEF
:1006400002F0BCFC4021002002F08CFA03210020C3
:1006500002F020FB314802F04DFB4FF48030FFF7F1
:10066000E7FE1120FFF78EFE02F074FC274B1B788B
:10067000002B47D0254B00221A7000BF284B1B6A65
:1006800003F00203002BF9D00023FB730023BB739C
:1006900019E0BB7B234AD35C002B11D0FB7B032BDF
:1006A0000BD8BB7B1846FFF7A3FE03469AB2FB7B31
:1006B000013A91B2184A22F81310FB7B0133FB7305
:1006C000BB7B0133BB73BB7B0F2BE2D9124B1B8867
:1006D0001A463721082002F0EFFB0F4B5B881A46C1
:1006E0003721092002F0E8FB0B4B9B881A46372183
:1006F0000A2002F0E1FB084BDB881A4637210B2069
:1007000002F0DAFB00BF1037BD4680BD4C00002070
:10071000943D0000D43D0000F0010020D43F0000D3
:1007200000C00840443D000080B582B000AFFFF734
:10073000A3FE034603F48033002B44D04FF48030F3
:10074000FFF768FE2B4B00221A7030E0294B1B7814
:10075000DBB21A46284B9B5C83F00103DBB2002B13
:100760001DD1FFF73BFE7860224B1B78DBB21946A8
:10077000224A7B6842F821301E4B1B78DBB21A46B6
:100780001F4B53F822307A689A4209D9194B1B78CB
:10079000DBB219461A4A7B6842F8213000E000BFFC
:1007A000144B1B78DBB20133DAB2124B1A70114BC7
:1007B0001B78DBB20F2BC9D9124B1B68002B02D060
:1007C000104B1B689847FFF757FE034603F470630E
:1007D000002B0AD04FF47060FFF71CFE0A4B1B6819
:1007E000002B02D0084B1B68984700BF0837BD4656
:1007F00080BD00BFEC010020443D0000A4010020AA
:100800000C000020E4010020E8010020B0B491B009
:1008100000AF4FF0FF33BB63EC237B634F4B07F11B
:1008200018041D460FCD0FC495E8030084E80300AB
:100830004B4B3C1D1D460FCD0FC42B68236001237D
:10084000FB6344E0FB6B9B0007F14002134453F849
:100850003C3C013B434A52F823301A02FB6B9B009D
:1008600007F140010B4443F8282CFB6B9B0007F178
:100870004002134453F83C3C013B3B4A52F82320CE
:10088000FB6B9B0007F140010B4453F8283CB3FB82
:10089000F2F2FB6B9B0007F140010B4443F8282C5C
:1008A000FB6B9B0007F14002134453F8283C7A6B22
:1008B0009A4209D9FB6B9B0007F14002134453F89D
:1008C000283C7B63FB6BBB63FB6B0133FB63FB6B04
:1008D000042BB7DDBB6BB3F1FF3F02D14FF0FF3309
:1008E00036E0BB6B013B1B013B633A6BBB6B013BCF
:1008F0009B0007F140010B4453F8283CC3F580737B
:10090000D900BB6B9B0007F14000034453F8283C1F
:10091000C3F58073B1FBF3F3D31A3B63BB6B0133B5
:100920009B0007F14002134453F8283CC3F5807341
:10093000DA00BB6B9B0007F140010B4453F8283CE5
:10094000C3F58073B2FBF3F23B6B13443B633B6B29
:1009500018464437BD46B0BC704700BF543D000048
:100960006C3D0000A40100200C00002080B500AF09
:10097000012001F09DFB00BF80BD80B584B000AFB9
:100980000346FB7101F0B2FAF860FFF787FDFFF74D
:10099000C3FDFFF7E1FDFB791846FFF7FBFDF868A3
:1009A00001F0B3FA00BF1037BD4680BD80B483B0FC
:1009B00000AF786000BF054B5A6E7B681340002B78
:1009C000F9D100BF0C37BD4680BC704700A008407D
:1009D00080B483B000AF7860054B9A6A7B68DB43D4
:1009E000034913408B6200BF0C37BD4680BC704783
:1009F00000A0084080B500AF00222849002001F087
:100A000057FE00222549012001F052FE0022234911
:100A1000022001F04DFE00222049032001F048FE93
:100A200000221E49042001F043FE00221B4905203C
:100A300001F03EFE00221949062001F039FE002295
:100A40001649072001F034FE0022FF21002001F0AA
:100A5000EDFE0022FF21012001F0E8FE0022FF212F
:100A6000022001F0E3FE0022FF21032001F0DEFE60
:100A70000022FF21042001F0D9FE0022FF210520E1
:100A800001F0D4FE0022FF21062001F0CFFE00225B
:100A9000FF21072001F0CAFE00BF80BD00F00FF06B
:100AA00080B582B000AF0346FB710121244800F0FD
:100AB000D9FD0321234800F0E7FF4021224800F040
:100AC0009FFC012001F096F90121204800F0CAFDA9
:100AD0004FF0FF30FFF77CFF1D4801F087FC01213C
:100AE000082001F0E1FC0121102001F0DDFC0121D2
:100AF000802001F0D9FC01214FF4807001F0D4FC7A
:100B000001214FF4007001F0CFFCFB79002B0DD0D8
:100B10004FF4402001F048FF4FF4803001F0A2FC78
:100B20000C4BDB6F0B4A43F00803D367FFF762FF00
:100B30004FF0FF30FFF73AFF00BF0837BD4680BDDA
:100B4000D0433E0002001E0080002A0000362C0028
:100B5000D441000000800C4080B485B000AF7860C4
:100B60001A4B5B69DBB29B00DBB203F03C03FB7307
:100B7000164B1B699B09DBB203F00303DAB2FB7B64
:100B80001343FB737B68FA7B9A70104B1B69DBB2D3
:100B900003F03F03DAB27B685A700C4B9B691B0968
:100BA000DBB21B01FB73094BDB691B09DBB203F0F2
:100BB0000F03DAB2FB7B1343FB737B68FA7B1A707B
:100BC00000BF1437BD4680BC704700BFD0FF0FE0A8
:100BD00080B487B000AFF860B9607A60FB6803F159
:100BE0000473DA00BB6813449B007B617B697A68FD
:100BF0001A6000BF1C37BD4680BC704780B485B00A
:100C000000AFF860B9607A60FB681A68BB68DB43C4
:100C10001A407B681A43FB681A6000BF1437BD4650
:100C200080BC704780B582B000AF786039607B6867
:100C30001C4A934202D07B681B4A934200BF3B6828
:100C40001B78DA073B685B789B0713431A463B68BF
:100C50005B681B0613433A68127A120213433A6820
:100C6000527A12011A437B681A603B689B7A1B0711
:100C70001A463B68DB7A1B041A433B68DB681B029D
:100C8000134343F0807343F0B0037A68536078688D
:100C90003B681B7C1A460021FFF79AFF00BF08370C
:100CA000BD4680BD001000400014004080B584B0F7
:100CB00000AFF860B96011461A460B46FB71134647
:100CC000BB71FB680B4A934202D0FB680A4A93420D
:100CD00000BFF868BB79DB001A460821FFF78EFFDA
:100CE000BB681A02FB791A43FB68DA6100BF103750
:100CF000BD4680BD001000400014004080B487B0A5
:100D000000AFF860B9607A60FB6803F10473DA0041
:100D1000BB6813449B007B617B697A681A6000BFE3
:100D20001C37BD4680BC704780B485B000AF78608A
:100D300039607B6803F10473DA003B6813449B005D
:100D4000FB60FB681B6818461437BD4680BC7047C3
:100D500080B483B000AF786001227B6802FA03F3AD
:100D600018460C37BD4680BC704780B485B000AFD4
:100D700078607B68002B03D07B68B3F5004F00BF21
:100D80007B68B3FA83F3DBB2C3F11F03FB60FB683C
:100D900018461437BD4680BC7047000080B400AFD1
:100DA000034BDB6C1B0EDBB21846BD4680BC7047A4
:100DB000B081E00F80B400AF034BDB6C1B0CDBB2E7
:100DC0001846BD4680BC7047B081E00F80B582B048
:100DD00000AFFFF7EFFF03464A2B04D0792B02D078
:100DE000482B23D024E0154B1B699BB21B029BB2FE
:100DF00003F47C53FB80114B9B691B091B0103F01F
:100E0000F0039AB2FB881343FB800C4BDB691B0990
:100E100003F00F039AB2FB881343FB80FB88B3F502
:100E2000017F01D3064B04E0064B02E0054B00E0D6
:100E3000002318460837BD4680BD00BFD0FF0FE035
:100E400000366E010048E80180B584B000AF7860DC
:100E50000123FB60FFF7BAFF02467B68934204D888
:100E60000023FB600023BB600BE0FFF7AFFF0346EE
:100E70005B007A689A4202D80123BB6001E002233A
:100E8000BB60FA681E210848FFF738FF064B5B6815
:100E900023F48072BB681B02034913434B6000BFFD
:100EA0001037BD4680BD00BF00800C4080B582B0C9
:100EB00000AF1E210448FFF737FF78607B681846B3
:100EC0000837BD4680BD00BF00800C4080B582B0B1
:100ED00000AF214B5B6903F4E063B3F5007F1CD0E6
:100EE000B3F5007F05D8002B25D0B3F5807F1FD048
:100EF0002AE0B3F5C06F24D0B3F5E06F1ED0B3F590
:100F0000407F21D1FFF74AFF0346122B02D9134B32
:100F10007B601CE0124B7B6019E0FFF73FFF03464C
:100F2000122B02D90F4B7B6011E00F4B7B600EE060
:100F30000E4B7B600BE00E4B7B6008E00D4B7B6043
:100F400005E00D4B7B6002E000237B6000BF7B6807
:100F500018460837BD4680BD00800C40804F120007
:100F600040420F0040B56400C0CF6A00C0D8A7005F
:100F7000809FD500406F4001003FAB0180B582B03B
:100F800000AF0D4800F0D2FC0346FB70FB78072B46
:100F900005D0092B07D1FFF743F9786006E0FFF78A
:100FA00095FF786002E000237B6000BF7B681846F5
:100FB0000837BD4680BD00BF06000E0080B485B076
:100FC00000AF78603960204B5B6803F00703FB607B
:100FD000FB68012B01D9042B02D10023FB7202E034
:100FE0000123FB7200BF7B68184A934207D9FB7A42
:100FF000002B01D0052300E00423FB6016E07B6892
:10100000124A93420BD87B68114A934207D9FB7A64
:10101000002B01D0032300E00123FB6006E0FB7AF4
:10102000002B01D0022300E00023FB60064B5B682D
:1010300023F007020449FB6813434B6000BF1437D9
:10104000BD4680BC704700BF00000C400048E8016E
:101050000024F40080B582B000AF0E4BDB6B002B98
:1010600014BF01230023FB710A4B41F67132DA638E
:10107000FFF7CCF8034600211846FFF79FFFFB79E6
:10108000002B02D0034B0022DA6300BF0837BD46B5
:1010900080BD00BF00000C4080B584B000AF786018
:1010A00039600C4BDB6B002B14BF01230023FB7357
:1010B000084B41F67132DA6339687868FFF77EFFD2
:1010C000FB7B002B02D0034B0022DA6300BF1037FA
:1010D000BD4680BD00000C4090B585B000AF786083
:1010E0000023BB607B68344A934203D0334A934267
:1010F00000D000E000BF786800F018FC0346FB60F9
:101100007B682D4A934203D02C4A934206D00CE0D0
:101110002B4B9B6A03F00303FB6006E0284B9B6AA2
:101120009B0803F00303FB6000BFFB68032B39D867
:1011300001A252F823F000BF6F1100004911000016
:101140005111000059110000FFF702F9B8602DE0BD
:10115000FFF70EF9B86029E0FFF73EF80446FFF705
:10116000A5FE0346013324FA03F3BB601EE000230F
:10117000BB607B68104A934203D07B680F4A93425E
:1011800013D10F4B9A6A7B680B498B4201D1102314
:1011900000E0142322FA03F3002B06D0FFF7E0F857
:1011A000B86002E00023BB6000E000BFBB681846E7
:1011B0001437BD4690BD00BF02001E000300200092
:1011C00000800C4080B483B000AF7860094B5B6D49
:1011D00003F00103002B07D100BF064B1A6D7B689B
:1011E0001340002BF9D100E000BF0C37BD4680BC96
:1011F000704700BF00800C4080B582B000AF10483F
:1012000000F094FB0346FB70FB78032B07D0092BFF
:1012100009D0022B0BD1FFF7ABF878600AE0FFF79B
:1012200097F8786006E0FEF7FBFF786002E00023A5
:101230007B6000BF7B6818460837BD4680BD00BF95
:101240000723260080B400AF00BFBD4680BC7047B6
:1012500080B400AF00BFBD4680BC704790B585B07C
:1012600000AF78607B681B0903F00F03BB60BB68AD
:10127000013B0C2B00F2AE8001A252F823F000BF1C
:10128000B5120000D5130000D5130000C5120000F0
:10129000D5130000D5130000D91200000713000079
:1012A00093130000D5130000D5130000D5130000E0
:1012B000ED1200004B4B1B689B0B03F0070301333F
:1012C000FB608AE0474B9B6803F00F03FB60F86804
:1012D000FFF73EFDF86080E0424B5B6803F00F03D0
:1012E000FB60F868FFF734FDF86076E03D4B5B6823
:1012F0001B0A03F00103FB60FB6801331846FFF78C
:1013000027FDF86069E07B68374A934218D0364A77
:10131000934203D8354A934207D036E0344A934289
:1013200019D0344A934226D02FE02E4B9B6E1B09D6
:1013300003F00F03FB60F868FFF70AFDF86027E091
:10134000284B9B6E1B0A03F00F03FB60F868FFF746
:10135000FFFCF8601CE0234B9B6E1B0B03F00304A7
:101360001020FFF702FD03462344FB60F868FFF7F7
:10137000EFFCF8600CE01B4B9B6E03F00303FB607B
:10138000F868FFF7E5FCF86002E00123FB6000BFAE
:1013900023E07B68184A934203D0184A93420AD04C
:1013A00014E0104B1B6F03F00303FB60F868FFF7BA
:1013B000CFFCF8600DE00B4B1B6F1B0903F0030320
:1013C000FB60F868FFF7C4FCF86002E00123FB60F3
:1013D00000BF02E00123FB6000BFFB681846143722
:1013E000BD4690BD00800C4080261600801612007D
:1013F00080002A0080062E0090071A0090171C001B
:1014000090B585B000AF786039607B681B0903F048
:101410000F03FB60FB68013B0C2B00F20F8101A264
:1014200052F823F0591400003D1600003D1600004C
:101430008D1400003D1600003D160000D51400007C
:1014400027150000E91500003D1600003D160000BC
:101450003D160000B51400003B68002B02D03B682D
:10146000082B00BFFFF7F6FD774B1B6823F4E03233
:101470003B68013B9B03744913430B60FEF7ACFED2
:10148000B8600021B868FFF707FED8E03B68002B82
:1014900003D03B68B3F5007F00BF3868FFF765FCF9
:1014A0003860694B9B6823F00F0267493B68134320
:1014B0008B60C4E03868FFF758FC0346013B3B6093
:1014C000614B5B6823F480723B681B025E491343E7
:1014D0004B60B4E03B68002B03D03B68B3F5007F62
:1014E00000BFFFF7B7FDFEF777FE02463B68B2FB91
:1014F000F3F31846FFF7A8FC3868FFF736FC3860AE
:10150000514B5B6823F00F024F493B6813434B601C
:10151000FEF762FEB8600021B868FFF7BDFDB8684D
:10152000FFF792FC8BE07B68484A93421ED0474A03
:10153000934203D8464A934207D054E0454A934227
:1015400025D0454A93423ED04DE00420FFF73AFEB5
:101550003868FFF70AFC38603B4B9B6E23F0F002C3
:101560003B681B01384913438B663CE00420FFF7BE
:1015700029FE3868FFF7F9FB3860334B9B6E23F484
:1015800070623B681B02304913438B662BE03B685B
:101590000F2B02D93B68802B00BF0420FFF712FEFF
:1015A0003868FFF7E2FB3860274B9B6E23F440540A
:1015B0001020FFF7DAFB02463B689B1A1B03224A06
:1015C000234393660FE00420FFF7FCFD3868FFF724
:1015D000CCFB38601C4B9B6E23F003021A493B681E
:1015E00013438B6600BF2AE07B681C4A934203D0FA
:1015F0001B4A934210D020E04020FFF7E3FD3868FB
:10160000FFF7B3FB3860104B1B6F23F003020E494A
:101610003B6813430B6710E04020FFF7D3FD3868A9
:10162000FFF7A3FB3860084B1B6F23F030023B68C9
:101630001B01054913430B6700BF00E000BF00BF5B
:101640001437BD4690BD00BF00800C4080261600B8
:101650008016120080002A0080062E0090071A00D3
:1016600090171C0080B586B000AF78600B46FB7009
:1016700000233B617B681B0A03F00F03013B092B2E
:1016800044D801A252F823F0C3160000C916000086
:10169000B11600000D1700000D170000CF16000056
:1016A000D91600000D1700000D170000E31600000A
:1016B000184B7B61FEF790FD03461846FFF7C4FB0D
:1016C00012E0154B7B610FE0144B7B610CE0144B77
:1016D0007B6101233B6107E0124B7B6110233B617F
:1016E00002E0114B7B6100BF7B681B0B03F01F0303
:1016F000FB603B69002B02D03869FFF763FDFB7884
:101700001A46F9687869FFF7F9FA00E000BF183760
:10171000BD4680BD40800C4008800C4044800C4099
:1017200058800C4060800C4078800C4090B585B0AB
:1017300000AF78607B6803F47813B3F5D01F00F036
:10174000B480B3F5D01F1AD8B3F5602F00F0C8806D
:10175000B3F5602F08D8B3F5003F45D0B3F5802F1F
:1017600036D0002B30D0D2E0B3F5901F45D0B3F582
:10177000B01F50D0B3F5801F00F0B680C7E0B3F5BE
:10178000181F00F0B580B3F5181F0BD8B3F5F01F84
:101790002ED0B3F5001F00F08380B3F5E01F00F0FA
:1017A0009180B4E0B3F5301F56D0B3F5301F03D8A5
:1017B000B3F5281F3DD0AAE0B3F5381F63D0B3F5C9
:1017C000781F00F09980A2E0FEF72AFDF860A1E002
:1017D000FEF726FDF860524B9B6803F00F03FA6892
:1017E00022FA03F3FB6095E0FEF7F6FCF86091E067
:1017F0004C48FFF771FCF8608CE04A48FFF76CFC3E
:10180000F860474B9B6E1B0903F00F03FA6822FA3E
:1018100003F3FB607EE04348FFF75EFCF860404B5B
:101820009B6E1B0A03F00F03FA6822FA03F3FB60B6
:1018300070E03C48FFF750FCF860394B9B6E1B0B87
:1018400003F003041020FFF790FA03462344FA68DC
:1018500022FA03F3FB605DE03248FFF73DFCF860DD
:101860002F4B9B6E1B0B03F00303FA6822FA03F362
:10187000FB602B4BDB6F03F007030133FA68B2FB0D
:10188000F3F3FB6046E02748FFF726FCF860244BA3
:101890009B6E03F00303FA6822FA03F3FB6039E05E
:1018A0002148FFF719FCF86034E01F48FFF714FCEB
:1018B000F8601B4B1B6F03F00303FA6822FA03F373
:1018C000FB6027E01848FFF707FCF860144B1B6F1C
:1018D0001B0903F00303FA6822FA03F3FB6019E023
:1018E000FFF74CFBF86015E0FFF7F0FAF86011E045
:1018F000FFF782FCF8600DE0FEF76EFC04467868A6
:10190000FFF7ACFC0346B4FBF3F3FB6002E00023FB
:10191000FB6000BFFB6818461437BD4690BD00BF92
:1019200000800C4002001E000300200080B485B03F
:1019300000AF78600123FB737B6803F00F03BB608B
:10194000BB68013B062B00F2938001A252F823F002
:101950006D190000A3190000DF190000711A0000C2
:10196000711A00001B1A00003D1A0000454BDB6A8B
:1019700003F47053B3F5805F09D0B3F5005F03D073
:10198000B3F5006F06D008E00223FB7308E00323E1
:10199000FB7305E00423FB7302E00523FB7300BF28
:1019A00069E0384B9B6A03F00303022B06D0032B3C
:1019B00007D0012B08D10323FB730FE00223FB7335
:1019C0000CE00623FB7309E02E4B9B6A03F4803383
:1019D000002B02D00A23FB7300E000BF4BE0294B31
:1019E0009B6A03F00C03082B06D00C2B07D0042BAA
:1019F00008D10323FB730FE00223FB730CE00623E3
:101A0000FB7309E01F4B9B6A03F48013002B02D089
:101A10000A23FB7300E000BF2DE01A4B1B6803F0A4
:101A20008053002B03D0B3F1805F03D023E0072362
:101A3000FB7302E00923FB7300BF1CE0114BDB6A60
:101A400003F46033B3F5803F08D0B3F5003F08D00E
:101A5000B3F5004F08D10923FB7308E00223FB73A1
:101A600005E00323FB7302E00123FB7300BF02E0E8
:101A70000023FB7300BFFB7B18461437BD4680BCB8
:101A8000704700BF00800C4080B588B000AF786020
:101A90000B46FB700323FB610323FB7600233B61B2
:101AA0007B6803F00F03FB60FB68013B062B00F231
:101AB000288101A252F823F0D51A0000AB1B0000C8
:101AC000AB1B0000031D0000031D0000711C000083
:101AD0009B1C0000FB78023B082B00F2148101A242
:101AE00052F823F0091B0000131B00001D1B00000F
:101AF0005F1B0000071D0000071D0000071D000000
:101B0000071D0000071D00000423FB610023FB7676
:101B100031E00323FB610123FB762CE00223FB6110
:101B20000223FB76FFF752F9034601331846FFF70D
:101B30008BF9FEF7F5FB0246764B9A4206D9764BB7
:101B40001B68754A43F06003136014E0724B1B6816
:101B500023F06003704A43F0200313600BE001237D
:101B6000FB610323FB76FFF731F903460133184687
:101B7000FFF76AF900BFFB7E01220121184600F041
:101B800057F9FFF767FAFFF75DFB634AFB6953629A
:101B9000FEF722FBB860B868FFF756F90021B86875
:101BA000FFF77AFAFFF754FBB0E0FB78013B092B13
:101BB00000F2AB8001A252F823F000BFE51B000049
:101BC000EB1B0000FB1B00000B1D00000B1D0000A9
:101BD0000B1C00000B1D00000B1D00000B1D000066
:101BE000271C000000237B6122E00122012100204C
:101BF00000F01EF902237B611AE00122012101207D
:101C000000F016F901237B6112E0FEF7E5FAB860F7
:101C1000B868FFF719F9012204214048FFF76EF870
:101C200003237B6104E000237B6101233B6100BF50
:101C3000FB68022B0DD1384B9B6A23F4803323F0D1
:101C400003037A691A433B691B04334913438B62CC
:101C50005CE0314B9B6A23F4801323F00C037A6918
:101C600092001A433B691B052B4913438B624DE0DD
:101C7000FB78072B02D0092B07D047E0264B1B68C7
:101C8000254A23F08053136006E0234B1B68224A49
:101C900043F08053136000BF38E0FB78032B14D06F
:101CA000092B22D0022B00D030E00122012100209C
:101CB00000F0BEF8184B40225A6200BF164BDB6A98
:101CC00003F48033002BF9D01AE001220121012016
:101CD00000F0AEF8104B60225A6200BF0E4BDB6A78
:101CE00003F40033002BF9D00AE00B4B20225A6298
:101CF00000BF094BDB6A03F40043002BF9D000BF9F
:101D000004E000BF02E000BF00E000BF2037BD4696
:101D100080BD00BF0048E80100800C4040800C40BE
:101D200080B586B000AF0346FB71FB79052B59D80F
:101D300001A252F823F000BF511D00005B1D0000FE
:101D4000671D0000731D00007F1D0000891D00003D
:101D5000264BDB6ADBB27B611CE0244BDB6A1B0A8F
:101D6000DBB27B6116E0214BDB6A1B0CDBB27B61D3
:101D700010E01E4BDB6A1B0EDBB27B610AE01B4BE3
:101D80001B6BDBB27B6105E0184B1B6B1B0ADBB2E4
:101D90007B6100BF1120FFF7C9FD0346FB74FB7C8C
:101DA000052B01D1FFF756F9114BDB6823F4FF63D4
:101DB00023F00703FA7912021A430D497B69134392
:101DC000CB60FB7C052B06D1FEF706FAF8600021FC
:101DD000F868FFF761F9FEF7FFF903461846FFF7C9
:101DE00033F800E000BF1837BD4680BDB081E00F7A
:101DF00000800C4080B483B000AF78600B4B9B6DCB
:101E000003F00803002B0CD17B6803F007037B6011
:101E1000064BDB6F23F0070204497B681343CB6753
:101E200000E000BF0C37BD4680BC704700800C400E
:101E300080B586B000AF0346FB710B46BB711346FD
:101E40007B71FB79042B48D801A252F823F000BF24
:101E50009D1E00008F1E0000731E0000651E000006
:101E6000811E000001233B610223FB6001237B6193
:101E70001DE004233B610823FB6003237B6116E024
:101E800010233B612023FB6005237B610FE040238F
:101E90003B618023FB6007237B6108E04FF4807384
:101EA0003B614FF40073FB6009237B6100BFBB798A
:101EB000002B0ED00B4A3B6913627B79002B0DD0AF
:101EC00000BF79690848FEF72FFF0346002BF8D0C2
:101ED00004E0044AFB68136200E000BF1837BD4607
:101EE00080BD00BF00800C402C800C4080B483B0CB
:101EF00000AFEFF310833B603B687B6072B67B689A
:101F000018460C37BD4680BC704780B483B000AF24
:101F100078607B68002B00D162B600BF0C37BD46ED
:101F200080BC704780B500AFFEF756F900BF80BD9A
:101F300080B400AF034B0022C3F8842000BFBD462D
:101F400080BC704700800C4080B400AF044B45F665
:101F50000E02C3F8842000BFBD4680BC704700BF9E
:101F600000800C4080B584B000AF0346FB71FB7964
:101F7000002B0BD12B4BDB6A2B4A13601120FFF790
:101F8000D5FC03461A46294B1A7047E0254BD3F877
:101F9000843003F00103FB60FFF7D6FF0023BB6032
:101FA000214B1B6803F00103BA681343BB601E4B4F
:101FB0001B6803F01003BA681343BB601A4B1B681D
:101FC00003F04003BA681343BB60174B1B6803F070
:101FD0000403BA681343BB60134B1B6803F480739C
:101FE000BA681343BB600F4ABB6813620F4B1B7880
:101FF000052B05D00D4B1B7819461120FFF744FD2A
:10200000094B1B6803F00103002B02D1054B022290
:102010001A62FB68002B01D0FFF78AFF00BF103760
:10202000BD4680BD00800C40F8010020FC0100206E
:1020300080B483B000AF174B1B699BB21B029BB2ED
:1020400003F47C53FB80134B9B691B091B0103F0BA
:10205000F0039AB2FB881343FB800E4BDB691B092C
:1020600003F00F039AB2FB881343FB80FB88B3F5A0
:10207000827F03D3FB88B3F5017F01D1012300E008
:10208000002303F00103DBB218460C37BD4680BCC9
:10209000704700BFD0FF0FE080B400AF00BFBD4667
:1020A00080BC704780B400AF00BFBD4680BC7047A5
:1020B00080B586B000AF0346FB71FB79002B02D0E0
:1020C0000020FFF74FFF1F4B1B691E4A43F004031C
:1020D0001361FFF7ADFF0346FB75FB7D002B11D0AD
:1020E000194B1A68194B1340FB60174AFB68C2F87A
:1020F0008030154B5B6823F046033B61124A3B6915
:10210000C2F88430FFF7C8FF30BFFFF7CBFFFB7D7D
:10211000002B05D00C4AFB6813600B4A3B695360E7
:10212000FB79002B02D00120FFF71CFFFB7983F025
:102130000103DBB2002B01D0FFF7F4FE00BF18371C
:10214000BD4680BD00ED00E000E100E09CF1FD0037
:1021500080B483B000AF03463960FB71FB79002B7C
:102160000DD0FB79012B0AD0FB79022B07D0FB792C
:10217000032B04D0FB79042B01D0FB79052B012222
:102180003B6802FA03F30749FA7918461346DB0065
:1021900013449B000B441433186000BF0C37BD463A
:1021A00080BC70470060004080B483B000AF03463D
:1021B0003960FB71FB79002B0DD0FB79012B0AD024
:1021C000FB79022B07D0FB79032B04D0FB79042B7E
:1021D00001D0FB79052B01223B6802FA03F3074982
:1021E000FA7918461346DB0013449B000B44103366
:1021F000186000BF0C37BD4680BC704700600040CF
:1022000080B483B000AF03460A46FB711346BB712E
:10221000FB79002B0ED0FB79012B0BD0FB79022B25
:1022200008D0FB79032B05D0FB79042B02D0FB7976
:10223000052B02D1BB79032B00BF0C49FA79134659
:10224000DB0013449B000B441B6823F00301BB79A4
:102250000648FA7919431346DB0013449B000344F4
:10226000196000BF0C37BD4680BC7047006000405D
:1022700080B584B000AFB9607B600346FB73134642
:10228000BB73FB7B002B0DD0FB7B012B0AD0FB7BB0
:10229000022B07D0FB7B032B04D0FB7B042B01D04C
:1022A000FB7B052BBB7B002B0DD07B68002B05D067
:1022B000FB7BB9681846FFF777FF04E0FB7BB96842
:1022C0001846FFF745FFBB68072B20D82D49FA7B3E
:1022D0001346DB0013449B000B4404331A68BB68AD
:1022E0009B000F2101FA03F3DB431340B97BBA686B
:1022F000920001FA02F211462248FA7B1943134672
:10230000DB0013449B0003440433196025E01D499E
:10231000FA7B1346DB0013449B000B4408331A6816
:10232000BB6803F18043083B9B000F2101FA03F3D4
:10233000DB4302EA0301BA7BBB6803F18043083B3D
:102340009B0002FA03F30F48FA7B19431346DB00A4
:1023500013449B00034408331960BB7B002B0DD151
:102360007B68002B05D0FB7BB9681846FFF71CFF84
:1023700004E0FB7BB9681846FFF7EAFE00BF1037A0
:10238000BD4680BD0060004080B483B000AF03460E
:10239000FB71FB79002B06D0084B1B68074A43F002
:1023A0000103136005E0054B1B68044A23F0010399
:1023B000136000BF0C37BD4680BC704700A00840CA
:1023C00080B487B000AFF860B9607A60FB6803F151
:1023D0000473DA00BB6813449B007B617B697A68F5
:1023E0001A6000BF1C37BD4680BC704780B584B002
:1023F00000AF78601A4B5B68FB600020FFF7C4FFFA
:10240000FB6823F4830323F01F03FB607B685B6896
:10241000FA681343FB607B681B7A1A46FB68134318
:10242000FB607B685B7A1A46FB681343FB607B6842
:10243000DB68FA681343FB607B681B8A1A46FB68FB
:102440001343FB60064AFB6853607B681B78002BD4
:1024500002D00120FFF798FF00BF1037BD4680BDB6
:1024600000A0084080B485B000AF78600D4B5B6879
:10247000FB60FB6823F48033FB607B68002B08D093
:10248000B3F5803F00D005E0FB6843F48033FB6088
:1024900000E000BF034AFB68536000BF1437BD462D
:1024A00080BC704700A0084080B483B000AF0346F2
:1024B0000A46FB8013467B717B79002B06D0094BC3
:1024C0009A68FB88074913438B6006E0054B9A68BE
:1024D000FB88DB43034913408B6000BF0C37BD46CC
:1024E00080BC704700A0084080B584B000AFF860A1
:1024F000B9601346FB71FB68072B00F2B38001A2A1
:1025000052F823F0252500004D2500007525000018
:102510009D250000C5250000ED25000015260000C2
:102520003D260000BB681F2B06DCBB68FA79194604
:102530004F48FFF745FF96E0BB68203BBB60BB6898
:10254000FA7919464B48FFF73BFF8CE0BB681F2B1D
:1025500006DCBB68FA7919464748FFF731FF82E08D
:10256000BB68203BBB60BB68FA7919464348FFF75C
:1025700027FF78E0BB681F2B06DCBB68FA79194699
:102580003F48FFF71DFF6EE0BB68203BBB60BB68A8
:10259000FA7919463B48FFF713FF64E0BB681F2B2D
:1025A00006DCBB68FA7919463748FFF709FF5AE09D
:1025B000BB68203BBB60BB68FA7919463348FFF71C
:1025C000FFFE50E0BB681F2B06DCBB68FA7919469A
:1025D0002F48FFF7F5FE46E0BB68203BBB60BB68B9
:1025E000FA7919462B48FFF7EBFE3CE0BB681F2B3E
:1025F00006DCBB68FA7919462748FFF7E1FE32E0AE
:10260000BB68203BBB60BB68FA7919462348FFF7DB
:10261000D7FE28E0BB681F2B06DCBB68FA79194699
:102620001F48FFF7CDFE1EE0BB68203BBB60BB68C8
:10263000FA7919461B48FFF7C3FE14E0BB681F2B4D
:1026400006DCBB68FA7919461748FFF7B9FE0AE0BD
:10265000BB68203BBB60BB68FA7919461348FFF79B
:10266000AFFE00E000BF00BF1037BD4680BD00BF19
:1026700040A0084050A0084044A0084054A0084092
:1026800048A0084058A008404CA008405CA0084062
:10269000CCA00840B4A00840D0A00840B8A0084092
:1026A000D4A00840BCA00840D8A00840C0A0084062
:1026B00080B487B000AFF860B9607A60FB68072B20
:1026C00000F2AC8001A252F823F000BFED2600001A
:1026D0001127000035270000592700007D27000042
:1026E000A5270000CD270000F52700004E4B1B6CEE
:1026F0007B61BB68DB437A6913407B61BA687B68A6
:1027000013407A6913437B61474A7B69136486E00F
:10271000454B5B6C7B61BB68DB437A6913407B6133
:10272000BA687B6813407A6913437B613E4A7B69D0
:10273000536474E03C4B9B6C7B61BB68DB437A6900
:1027400013407B61BA687B6813407A6913437B61ED
:10275000354A7B69936462E0334BDB6C7B61BB6819
:10276000DB437A6913407B61BA687B6813407A69FE
:1027700013437B612C4A7B69D36450E02A4BD3F826
:10278000CC307B61BB68DB437A6913407B61BA68FC
:102790007B6813407A6913437B61234A7B69C2F8E3
:1027A000CC303CE0204BD3F8D0307B61BB68DB43BE
:1027B0007A6913407B61BA687B6813407A69134376
:1027C0007B61194A7B69C2F8D03028E0164BD3F8F8
:1027D000D4307B61BB68DB437A6913407B61BA68A4
:1027E0007B6813407A6913437B610F4A7B69C2F8A7
:1027F000D43014E00C4BD3F8D8307B61BB68DB439A
:102800007A6913407B61BA687B6813407A69134325
:102810007B61054A7B69C2F8D83000E000BF00BF89
:102820001C37BD4680BC704700A0084080B487B00C
:1028300000AFF860B9607A60FB68072B00F2AC80EB
:1028400001A252F823F000BF692800008D28000083
:10285000B1280000D5280000F92800002129000037
:1028600049290000712900004E4B1B6D7B61BB683C
:10287000DB437A6913407B61BA687B6813407A69ED
:1028800013437B61474A7B69136586E0454B5B6D6B
:102890007B61BB68DB437A6913407B61BA687B6804
:1028A00013407A6913437B613E4A7B69536574E048
:1028B0003C4B9B6D7B61BB68DB437A6913407B615A
:1028C000BA687B6813407A6913437B61354A7B6938
:1028D000936562E0334BDB6D7B61BB68DB437A69F8
:1028E00013407B61BA687B6813407A6913437B614C
:1028F0002C4A7B69D36550E02A4BD3F8B4307B6116
:10290000BB68DB437A6913407B61BA687B6813401C
:102910007A6913437B61234A7B69C2F8B4303CE097
:10292000204BD3F8B8307B61BB68DB437A69134036
:102930007B61BA687B6813407A6913437B61194AEB
:102940007B69C2F8B83028E0164BD3F8BC307B6105
:10295000BB68DB437A6913407B61BA687B681340CC
:102960007A6913437B610F4A7B69C2F8BC3014E07B
:102970000C4BD3F8C0307B61BB68DB437A691340F2
:102980007B61BA687B6813407A6913437B61054AAF
:102990007B69C2F8C03000E000BF00BF1C37BD46F5
:1029A00080BC704700A0084080B483B000AF78605E
:1029B000064B5B6823F4E01204497B6813434B60C9
:1029C00000BF0C37BD4680BC704700BF00A0084068
:1029D00080B487B000AFF860B9607A60FB6803F13B
:1029E0000473DA00BB6813449B007B617B697A68DF
:1029F0001A6000BF1C37BD4680BC704780B582B0EE
:102A000000AF78600B46FB70FB78002B01D000F024
:102A1000EFFA7B681B7D184600F022F97B685B7833
:102A20009B007A6892781A437B689B681A437B689C
:102A3000DB681A437B68DB785B021A437B681B798F
:102A40009B021A437B685B795B031A437B689B7923
:102A50005B041A437B68DB791B041A437B685B7C4D
:102A60009B053F4913430B607B681B780021184688
:102A700000F0D6F87B681B7E1A467B68DB7E5B0025
:102A80001A437B685B7E9B001A437B689B7E9B019D
:102A90001A437B681B7F1B011A437B685B7F1B0209
:102AA0001A437B689B7F9B021A437B681B6A1A430D
:102AB0007B6893F824301B051A437B6893F8253014
:102AC0009B051A437B689B6A254913438B607B688F
:102AD0009B8D1A467B6893F83B309B021A437B68B8
:102AE00093F83C309B031A437B6893F83D309B047A
:102AF0001A437B6893F83E309B051A437B6893F832
:102B000034305B001A437B6893F835309B001A43DE
:102B10007B6893F83630DB001A437B6893F83730D4
:102B20001B011A437B6893F838305B011A437B68BA
:102B300093F839309B011A437B6893F83A30DB01F4
:102B400007491343CB607B681B6B184600F0F2F912
:102B50007B681A7C024B1A6100BF0837BD4680BDF6
:102B600000C0084080B588B000AF786039600023AD
:102B7000FB610123BB613F237B617B68002B03D199
:102B80002548FEF7D3FD78603B68002B0CD03A68EF
:102B90007B689A4200BF07E0FB690133FB610122B9
:102BA000FB6902FA03F3BB613B68BA6902FB03F3FA
:102BB0007A68B2FBF3F27B6901339A4202D9FB696E
:102BC000062BE9D93B68BA6902FB03F37A68B2FBCA
:102BD000F3F3013B7B61114B5B6823F47F2323F408
:102BE000E0633B61FB691A027B691B0313433A698B
:102BF00013433B61094A3B6953607B690133BA69FE
:102C000002FB03F37A68B2FBF3F3FB60FB68184640
:102C10002037BD4680BD00BF80062E0000C00840A2
:102C200080B584B000AF03460A46FB711346BB7102
:102C30000A4B1B6823F00303FB60FB79FA6813431C
:102C4000FB60064AFB681360BB79002B01D000F0E3
:102C500081F900BF1037BD4680BD00BF00C00840ED
:102C600080B485B000AF0346FB71094B5B6823F469
:102C70004003FB60FB799B05FA681343FB60044A41
:102C8000FB68536000BF1437BD4680BC704700BF6F
:102C900000C0084080B485B000AF03460A46FB710F
:102CA0001346BB71FB79002B0FD0012B00D01AE02B
:102CB0000F4B5B6823F00303FB60BB79FA68134397
:102CC000FB600B4AFB6853600DE0094B5B6823F027
:102CD0007003FB60BB791B01FA681343FB60044A75
:102CE000FB68536000BF00BF1437BD4680BC70470F
:102CF00000C0084080B584B000AF78600023FB605E
:102D00000AE0FB685B017A681344F968184600F032
:102D10000BF8FB680133FB60FB680F2BF1D900BF98
:102D20001037BD4680BD000080B584B000AF78602C
:102D300039607B685B68B3F5C03F7B681B7A032B07
:102D40000AD13B680C2B07D03B680D2B04D03B68A5
:102D50000E2B01D03B680F2B00BF7B681B7A032B27
:102D60000AD13B68002B07D03B68012B04D03B689D
:102D7000022B01D03B68032B00BF394B9A6B3B6899
:102D80005B00032101FA03F3DB431340FB607B6824
:102D90001B7A1A463B685B0002FA03F3FA68134396
:102DA000FB602F4AFB6893633B68D8B27B68D97B92
:102DB0007B681A7C7B685B8A00F05AF87B685B7BD7
:102DC0005A047B689B7B9B0413437A68D28A134323
:102DD0007A68128B1A437B685B681A437B685B7A5C
:102DE000DB041F491A433B682C331B010B4404339B
:102DF0001A607B68DA697B689B7A5B041A437B689C
:102E00001B7B9B041A437B68DB7ADB0414491A435F
:102E10003B681B010B4403F532731A603B68D8B260
:102E20007B68998A7B685B8B1A4600F045F87B6863
:102E30009B781A4639680B48FFF7CAFD7B685B78B8
:102E40001A4639680848FFF7C3FD7B681B781A46A5
:102E500039680648FFF7BCFD00BF1037BD4680BD8E
:102E600000C008404CC0084054C0084018C008408A
:102E700090B482B000AF0446084611461A46234675
:102E8000FB710346BB710B467B7113467B80BA799D
:102E90007B799B0142EA03017B885A030548FB7951
:102EA0000A432C331B0103441A6000BF0837BD4698
:102EB00090BC704700C0084080B485B000AF0346A6
:102EC000FB710B46BB8013467B80194AFB792C3380
:102ED0001B01134404331B6823F47F6323F00F03A7
:102EE000FB60BB88FA681343FB60114AFB792C3303
:102EF0001B0113440433FA681A600D4AFB791B0165
:102F0000134403F532731B681B0C1B04FB607B88A6
:102F1000FA681343FB60064AFB791B01134403F56F
:102F20003273FA681A6000BF1437BD4680BC704720
:102F300000C0084080B483B000AF7860044A7B686A
:102F400003F00F03136300BF0C37BD4680BC70470E
:102F500000C0084080B400AF00BF0A4B1B6D03F0F7
:102F60002003002BF9D1074B01225A6100BF054B0A
:102F70001B6D03F02003002BF9D100BFBD4680BCC0
:102F8000704700BF00C0084080B400AF00BF0A4BCC
:102F90001B6D03F02003002BF9D1074B02225A616D
:102FA00000BF054B1B6D03F02003002BF9D100BFC0
:102FB000BD4680BC704700BF00C0084080B400AF71
:102FC00000BF0A4B1B6D03F02003002BF9D1074B08
:102FD00008225A6100BF054B1B6D03F02003002B34
:102FE000F9D100BFBD4680BC704700BF00C008409B
:102FF00080B483B000AF384B0022DA64364B374AD6
:103000005A64354BDB68344A43F00103D36000BF98
:10301000314B1B6D03F02003002BF9D12E4B0A22FC
:103020005A612D4B00221A602B4B00229A602A4BCA
:103030000022DA60284B00221A61274B00229A6195
:10304000254B00229A63244B0022DA63224B002294
:103050005A6500237B6019E01F4A7B682C331B01F3
:10306000134400221A601C4A7B682C331B01134452
:10307000043300221A60184A7B681B01134403F5CD
:10308000327300221A607B6801337B607B680F2BF0
:10309000E2D900237B600FE00F4A7B6840330021B8
:1030A00042F833100C4A7B684033DB0013440022A3
:1030B0005A607B6801337B607B680F2BECD900BFC3
:1030C000054B1B6D03F02003002BF9D100BF0C371B
:1030D000BD4680BC704700BF00C00840FFFF7F00B6
:1030E00080B483B000AF03463960FB7197F90730B5
:1030F000002B0ADB3B68DAB20C4997F90730520122
:10310000D2B20B4483F800230AE03B68DAB20849E4
:10311000FB7903F00F03043B5201D2B20B441A7641
:1031200000BF0C37BD4680BC704700BF00E100E027
:1031300000ED00E080B582B000AF78607B68013BB5
:10314000B3F1807F01D301230FE00A4A7B68013B82
:10315000536007214FF0FF30FFF7C2FF054B0022FD
:103160009A60044B07221A60002318460837BD46B0
:1031700080BD00BF10E000E080B400AF034BDB6C0B
:103180001B0EDBB21846BD4680BC7047B081E00F15
:1031900080B582B000AF0E4B01221A64FFF7ECFF3E
:1031A0000346FB713B1D1846FDF7D6FCFB790F2B40
:1031B0000AD93B79022B07D9064B1B6823F0500331
:1031C000044A43F01003136000BF0837BD4680BDBA
:1031D00000000C40C0800C4080B500AF464B1B681F
:1031E000012B4BD1454B1B68062B25D1444B0122AB
:1031F0001A60444B1868414B1B68434A32F813105D
:1032000082B28A1A91B2404A22F813103B4B002234
:103210001A603E4B1868394B1B683B4A32F8131052
:1032200082B20A4491B2384A22F81310384B1B6814
:103230000133374A13603BE0304B1B6801332F4AA0
:103240001360324B18682D4B1B682F4A32F813104D
:1032500082B20A4491B22C4A22F81310294B186802
:10326000264B1B685A1E284931F8121082B2013BC6
:103270008A1A91B2244A22F8131019E0214B1868D7
:103280001E4B1B68204A32F8131082B28A1A91B280
:103290001D4A22F813101D4B1868184B1B681A4A58
:1032A00032F8131082B20A4491B2174A22F813106E
:1032B000134B1B68002B04D000F034F9104B002294
:1032C0001A60114800F08AFB124B1B78DAB2124BDD
:1032D0001A700E4B1B680B4A13600A4B1A68134690
:1032E0009B0013445B001A46044B1B6813440B4AB3
:1032F000136000BF80BD00BF40020020000200201C
:103300005402002050000020280200203802002033
:10331000040200204C0200204D0000205400002038
:1033200080B586B000AF0346FB71FDF76FFA3861D8
:10333000FDF71CFB1823FB603B69B3F1FF3F01D194
:10334000FB791BE03A69FB689A4209DAFB79022BA8
:1033500003D0FB790133FB750FE0FB79FB750CE0C3
:103360003A69FB689A4208DDFB79002B03D0FB79B0
:10337000013BFB7501E0FB79FB75FB7D18461837B7
:10338000BD4680BD80B483B000AF0346FB71FB79BE
:10339000012B01D1012300E0002318460C37BD4664
:1033A00080BC704780B485B000AF78600B46FB707E
:1033B0001346BB70FB78012B06D1BB78012B03D1E0
:1033C0007B68FB60FB6854E0FB78022B02D1BB7882
:1033D000022B05D0FB78002B0BD1BB78002B08D13A
:1033E0007B68102B02D12023FB6041E01023FB609F
:1033F0003EE0FB78022B0CD1BB78012B09D17B6816
:10340000102B03D14FF48863FB6031E00123FB6094
:103410002EE0FB78002B0CD1BB78012B09D17B6807
:10342000102B02D10823FB6022E04FF48863FB607D
:103430001EE0FB78012B0CD1BB78002B09D17B68F7
:10344000B3F5886F02D11023FB6011E02023FB60ED
:103450000EE0FB78012B0BD1BB78022B08D17B68E7
:10346000B3F5886F02D12023FB6001E01023FB60DD
:10347000FB6818461437BD4680BC704780B582B0E3
:1034800000AF00F067FB0146224B83FB0132CB17F4
:10349000D21A13465B0013445B00CA1A1E4B1A6013
:1034A00000F058FB01461D4B83FB01235A10CB173C
:1034B000D21A13469B001344CA1A1346FB71FB79B8
:1034C000042B22D801A252F823F000BFE1340000FF
:1034D000E9340000F1340000F93400000135000047
:1034E0000F4B01221A6010E00D4B08221A600CE00D
:1034F0000B4B10221A6008E0094B20221A6004E0EE
:10350000074B4FF488621A6000BF00BF0837BD4602
:1035100080BD00BFABAAAA2A5C020020676666666F
:103520003C02002080B500AF714B1B68714A82FBE2
:1035300003129210DB17D01A6D4B19686D4B83FB89
:1035400001239A10CB17D21A13469B0013445B0039
:10355000CA1A694B33F8121083B2CB1A99B2664B70
:1035600023F81210654B1B68624A82FB031292100B
:10357000DB17D01A614B19685E4B83FB01239A104D
:10358000CB17D21A13469B0013445B00CA1A5A4B3E
:1035900033F8121083B2CB1A99B2574B23F812109A
:1035A000574B1B68534A82FB03129210DB17D01A49
:1035B000534B19684F4B83FB01239A10CB17D21A38
:1035C00013469B0013445B00CA1A4B4B33F812108E
:1035D00083B2CB1A99B2484B23F81210FFF74EFF73
:1035E000484B1A6813469B0013445B001A46464B2F
:1035F0001B68134401333E4A1360FFF73FFF414B02
:103600001A6813469B0013445B001A463E4B1B6826
:1036100013440133394A1360FFF730FF394B1A68FE
:1036200013469B0013445B001A46374B1B68134438
:103630000133334A13602E4B1B682E4A82FB031260
:103640009210DB17D01A2A4B19682A4B83FB0123EF
:103650009A10CB17D21A13469B0013445B00CA1A68
:10366000254B33F8121083B20B4499B2224B23F846
:103670001210224B1B681F4A82FB03129210DB17A9
:10368000D01A1E4B19681B4B83FB01239A10CB17D2
:10369000D21A13469B0013445B00CA1A164B33F828
:1036A000121083B20B4499B2134B23F81210144B2F
:1036B0001B68104A82FB03129210DB17D01A104BC2
:1036C00019680C4B83FB01239A10CB17D21A1346AF
:1036D0009B0013445B00CA1A074B33F8121083B2E5
:1036E0000B4499B2044B23F8121000BF80BD00BFF9
:1036F0004402002067666666280200201802002047
:10370000580200203C0200205C02002080B500AF7F
:10371000FFF7B4FE5E4B1A6813469B0013445B0030
:103720001A465C4B1B68134401335B4A1360FFF776
:10373000A5FE574B1A6813469B0013445B001A46BC
:10374000544B1B6813440133544A1360FFF796FE31
:103750004F4B1A6813469B0013445B001A464D4BAF
:103760001B68134401334E4A13604B4B1A684D4B90
:1037700083FB02139910D317C91A0B469B000B4405
:103780005B00D11A454B1868464B83FB00239A1007
:10379000C317D21A13469B0013445B00C21A91420E
:1037A0003E4B1A683F4B83FB02139910D317C91A7B
:1037B0000B469B000B445B00D11A394B1868394B00
:1037C00083FB00239A10C317D21A13469B0013449D
:1037D0005B00C21A9142304B1B68324A82FB0312D3
:1037E0009210DB17D01A2C4B19682E4B83FB012348
:1037F0009A10CB17D21A13469B0013445B00CA1AC7
:10380000294B33F8121083B20B4499B2264B23F89C
:103810001210224B1B68234A82FB03129210DB1703
:10382000D01A1E4B19681F4B83FB01239A10CB172C
:10383000D21A13469B0013445B00CA1A1A4B33F882
:10384000121083B20B4499B2174B23F81210144B89
:103850001B68144A82FB03129210DB17D01A104B1C
:103860001968104B83FB01239A10CB17D21A134609
:103870009B0013445B00CA1A0B4B33F8121083B23F
:103880000B4499B2084B23F8121000BF80BD00BF53
:103890003C0200205C0200204402002018020020AC
:1038A00058020020676666662802002090B583B043
:1038B00000AFFFF76DFC0020FEF732FA0020FDF7A5
:1038C000EFF80020FDF759F82748FDF72FFF0346D2
:1038D0001846FFF72FFC0346002B00D0FEE72348D5
:1038E00000F06CF903460C46184600F00FF900236F
:1038F0007B6007E01E4A7B68002122F813107B687A
:1039000001337B607B68062BF4DD194B4FF4886232
:103910001A80FFF7FBFE174B00221A60144800F0D4
:103920005DF8154B1B78DBB21846FFF7F9FC034630
:103930001A46124B1A70104B1B78DBB21846FFF771
:1039400021FD02460E4B1A600E4B18680A4B1B787D
:10395000D9B20A4B1B78DBB21A46FFF723FD0246A9
:10396000094B1A60DDE700BF700002002002002052
:1039700028020020540200204D0000204C020020AC
:1039800040020020500000203802002080B483B0A4
:1039900000AF0346FB71FB79002B03D0054B0122DE
:1039A0001A6602E0034B00221A6600BF0C37BD46C0
:1039B00080BC704700A0084080B483B000AF78603E
:1039C00000BF054B5A6E7B681340002BF9D100BF36
:1039D0000C37BD4680BC704700A0084080B586B05B
:1039E00000AF78604FF0FF30FFF7E6FF0120FFF7F0
:1039F000CDFF0023BB753CE00023FB7533E0BA7DAF
:103A0000F97D21481346DB009B1A9B0003440B44BD
:103A10000E331B783B61BA7DF97D1B481346DB00F2
:103A20009B1A9B0003440B441B78FB60BB7D5B002F
:103A30007A6813441B881A46FB7D42FA03F303F0AD
:103A40000103002B06D0FB68396901221846FEF7F6
:103A50004BFD05E0FB68396900221846FEF744FD7E
:103A6000FB7D0133FB75FB7D0D2BC8D9BB7D01337D
:103A7000BB75BB7D062BBFD90020FFF787FF00BFBA
:103A80001837BD4680BD00BF5800002008B5074B61
:103A9000044613B10021AFF30080054B1868836A18
:103AA00003B19847204600F03FF900BF0000000036
:103AB000E841000070B500250C4E0D4CA41BA4106D
:103AC000A54209D100F032F900250A4E0A4CA41B88
:103AD000A410A54205D170BD56F825309847013590
:103AE000EEE756F8253098470135F2E780010020CF
:103AF0008001002080010020840100200346024450
:103B0000934200D1704703F8011BF9E738B50D4B1C
:103B100005461C68A36B7BB9182000F07BF80A4AA5
:103B20000A4BA063C0E90023094B012283600B23E9
:103B300083810023C0E904230022A36B1D615A6125
:103B400038BD00BF1C0100200E33CDAB34126DE632
:103B5000ECDE050038B5134B1C68A36B7BB918204D
:103B600000F058F8104A114BA063C0E90023104B35
:103B7000012283600B2383810023C0E90423A16B0E
:103B80000C480A694B6950430B4C04FB0300A2FB31
:103B900004230344541C43F10005C1E9044525F006
:103BA000004038BD1C0100200E33CDAB34126DE651
:103BB000ECDE05002DF451582D7F954C1FB50B4BB5
:103BC000044600226946186800F012F8002805DA59
:103BD0004FF0FF324FF0FF33CDE90023DDE9000164
:103BE0000CB1C4E9000104B010BD00BF1C010020ED
:103BF00038B50023064C054608461146236000F000
:103C00007DF8431C02D1236803B12B6038BD00BF8F
:103C100060020020024B0146186800F003B800BFA4
:103C20001C01002070B5CD1C25F0030508350C2DB6
:103C300038BF0C25002D064601DBA94203D90C2311
:103C40003360002070BD00F057F8214A1468214607
:103C500091B9204C23681BB9304600F03DF8206034
:103C60002946304600F038F8431C24D10C23304656
:103C7000336000F042F8E4E70B685B1B18D40B2BB1
:103C80000FD90B60CC18CD50304600F036F804F157
:103C90000B00231D20F00700C31AD3D05A42E25074
:103CA000D0E74B688C4216BF636013600C46EBE7AD
:103CB0000C464968CCE7C41C24F00304A04205D09C
:103CC000211A304600F008F80130CFD02560DBE73C
:103CD000080200200C02002038B50023054C0546E0
:103CE0000846236000F012F8431C02D1236803B198
:103CF0002B6038BD60020020704770475822024B8D
:103D00004FF0FF301A60704760020020044A0549F6
:103D10001368002B08BF0B46184410601846704704
:103D20001002002068020020FEE700BFF8B500BFC7
:103D3000F8BC08BC9E467047F8B500BFF8BC08BC8C
:103D40009E467047000000000000000001010101D4
:103D500000000000FF000000FF000000FF00000066
:103D6000FF000000FF000000FF0000000000000056
:103D7000090000000A0000000B0000000C00000019
:103D80000000000007000000070700003D000000E1
:103D90000000000000000000000000010000000022
:103DA0000000000000000000000000000000000013
:103DB00000000000000004000202000000000000FB
:103DC00000000000000000000001000000000100F1
:103DD00001020300000000000000000000000000DD
:103DE00000000000000000000000000000000000D3
:103DF00000000000000000000000000000000000C3
:103E000000000000000000000000000000000000B2
:103E100000000000000000000000000000000000A2
:103E20000000000000000000000000000000000092
:103E30000000000000000000000000000000000082
:103E40000000000000000000000000000000000072
:103E50000000000000000000000000000000000062
:103E60000000000000000000000000000000000052
:103E70000000000000000000000000000000000042
:103E80000000000000000000000000000000000032
:103E90000000000000000000000000000000000022
:103EA0000000000000000000000000000000000012
:103EB0000000000000000000000000000000000002
:103EC00000000000000000000000000000000000F2
:103ED00000000000010101000000000000000000DF
:103EE00001000000010000003700000000200E006B
:103EF00000000000010101000000000000000000BF
:103F000001000000010000003700000000200E004A
:103F1000000000000101010000000000000000009E
:103F200001000000010000003700000000200E002A
:103F3000000000000101010000000000000000007E
:103F400001000000010000003700000000200E000A
:103F50000000000000000000000000000000000061
:103F60000000000000000000000000000000000051
:103F70000000000000000000000000000000000041
:103F80000000000000000000000000000000000031
:103F90000000000000000000000000000000000021
:103FA0000000000000000000000000000000000011
:103FB0000000000000000000000000000000000001
:103FC00000000000000000000000000000000000F1
:103FD00000000000000000000000000000000000E1
:103FE00000000000000000000000000000000000D1
:103FF00000000000000000000000000000000000C1
:1040000000000000000000000000000000000000B0
:1040100000000000000000000000000000000000A0
:104020000000000000000000000000000000000090
:104030000000000000000000000000000000000080
:104040000000000000000000000000000000000070
:104050000000000000000000000000000000000060
:104060000000000000000000000000000000000050
:104070000000000000000000000000000000000040
:104080000000000000000000000000000000000030
:104090000000000000000000000000000000000020
:1040A0000000000000000000000000000000000010
:1040B0000000000000000000000000000000000000
:1040C00000000000000000000000000000000000F0
:1040D00000000000010100000000000000000000DE
:1040E000010000000F000000370000000020000069
:1040F00000000000010100000000000000000000BE
:10410000010000000F000000370000000020000048
:10411000000000000101000000000000000000009D
:10412000010000000F000000370000000020000028
:10413000000000000101000000000000000000007D
:10414000010000000F000000370000000020000008
:10415000000000000000000000000000000000005F
:10416000000000000000000000000000000000004F
:10417000000000000000000000000000000000003F
:10418000000000000000000000000000000000002F
:10419000000000000000000000000000000000001F
:1041A000000000000000000000000000000000000F
:1041B00000000000000000000000000000000000FF
:1041C00000000000000000000000000000000000EF
:1041D0000000000001000000030040000C0000008F
:1041E000000000000000000020010020000000008E
:0841F0002CBFFF7F010000005D
:1041F800006CDC0200800000809FD50001000000F8
:1042080001000000010000000100000001000000A2
:104218000100000001000000010000000100000092
:104228000100000001000000010000000100000082
:104238000100000001000000010000000101000071
:1042480040040000802A000001010507070304025A
:104258000302040605060D0E0E0E0D0D0D0D0E0EB5
:104268000E0E0D0D010105070703040203020406E3
:1042780005060F1010100F0F0F0F101010100F0F52
:1042880001010507070304020302040605061112CB
:104298001212111111111212121211110101050736
:1042A80007030402030204060506131C1C1C13134F
:1042B80013131C1C1C1C1313000105070602030121
:1042C8000302040604051D1E1E1E1D1D1D1D1E1EA7
:1042D8001E1E1D1D00010507060203010302040638
:1042E80004051F2020201F1F1F1F202020201F1F04
:1042F800010105070703040203020406050621223B
:1043080022222121212122222222212120010020D2
:104318000000000000000000000000000000000095
:104328000000000000000000000000000000000085
:104338000000000000000000000000000000000075
:104348000000000000000000000000000000000065
:104358000000000000000000000000000000000055
:104368000000000000000000000000000000000045
:0843780001010000DD0000005E
:040000030000019167
:00000001FF
